:020000002F28A7
:10000800FF00030E8301A4000A08A5008A010C1C46
:100018001528A20A0319A30AF6308F003C308E0077
:100028000C1025088A00240E8300FF0E7F0E09009D
:0E0038008312031321088A00200882000800AA
:100046001C208A110A128000840AA00A0319A10A38
:08005600F003031D232808003C
:10005E0083120313A201A301831686018312860164
:10006E00F6308F003C308E00901610169011101145
:10007E0090101014C0308B0083160C1483122308BA
:10008E00013C031D4C282208F43C031C5628061480
:10009E0086140611861106128612061306132308FD
:1000AE00013C031D5C282208F43C03186E2823082B
:1000BE00033C031D64282208E83C031C6E2806102E
:1000CE008610061586150612861206138613230849
:1000DE00033C031D74282208E83C031886282308D5
:1000EE00053C031D7C282208DC3C031C86280610D8
:1000FE008610061186110616861606138613230819
:10010E00053C031D8C282208DC3C03189E2823087E
:10011E00073C031D94282208D03C031C9E28061081
:10012E0086100611861106128612061786172308E8
:10013E00073C031DA4282208D03C0318A828A201BE
:06014E00A3014528A928C9
:02400E004A2F37
:00000001FF
