:020000002D28A9
:10000800FF00030E8301A4000A08A5008A010B1D46
:100018001328A20A0319A30A9E3081000B11250890
:0C0028008A00240E8300FF0E7F0E0900EA
:0E0034008312031321088A00200882000800AE
:100042001A208A110A128000840AA00A0319A10A3E
:08005200F003031D2128080042
:10005A0083120313A201A3018316860183120610D9
:10006A00C73083168100C0308B008B160030831294
:10007A002302031D422864302202031C482801304F
:0A008A008606A201A3013B284928C5
:02400E004A2F37
:00000001FF
