:020000000129D4
:10000600103083120313FD00FD0B072800000800C3
:10001600083083120313FC002330FD00FD0B11286A
:06002600FC0B112808008C
:04002C0000000800C8
:1000300083120313BD1B1E2888131F2888173D1B1E
:100040002328081324280817BD1A282888122928CD
:1000500088163D1A2D2808122E280816371832281F
:10006000081533280811881516208811BD193A285B
:1000700088133B2888173D193F2808134028081784
:10008000BD1844288812452888163D1849280812AA
:100090004A28081637184E2808154F2808118815C1
:1000A00016208811371C56280B20572803200800DB
:0E00B0008312031336088A0035088200080008
:1000BE008312031337103C08BD00182037140800B4
:1000CE008316031388110811081288120813881357
:1000DE0083128811081188130813881208120B2036
:1000EE000B200B20881608168815162088110B2059
:1000FE008815162088110B208815162088110B20C4
:10010E0008128815162088110B20881516208811C4
:10011E00881288178815162088110B208813081648
:10012E0088151620881108128815162088110B20A4
:10013E0088151620881108168815162088110B2090
:10014E0008128815162088118817081788160816A1
:0C015E008815162088110B2037140800AB
:10016A00C728803083120313B800DA28C030B800D9
:10017A00DA289430B800DA28D430B800DA28803087
:10018A00B800DA28831203133808013A0319B6288B
:10019A003808023A0319BB283808033A0319BE285B
:1001AA003808043A0319C128C4283903F00038086A
:1001BA00F0077008B8007008BD0018203710BB019E
:1001CA003B083A07840000080319F3283B083A075A
:1001DA0084000008BC005F20BB0AE5283714080029
:1001EA0058208A110A128000840AB50A0319B60A2D
:0801FA00F003031DF5280800C5
:10020200503083120313A0006930A1006330A200B2
:100212003130A3003630A4006630A5003830A60085
:100222003730A7003730A8006130A9002030AA007B
:100232007630AB006530AC00AD014D30AE006930B8
:10024200AF006330B0007230B1006F30B2004330A3
:10025200B300B40167200C30BD0018200130BD008E
:1002620018200130B8000130B9002030BA00B520A2
:100272000230B8000330B9002E30BA00B520861E15
:1002820045290130BD001820061F4B291C30BD0036
:0802920018204A2940294C29DB
:02400E004A2F37
:00000001FF
