:02000000BE2818
:1000060083120313FB01FA01F9018030F800F10CA9
:10001600F00C031C17287408F90775080318750FE8
:10002600FA070318FB0A0310F01F1F287408FA07C3
:1000360075080318750FFB07FB0CFA0CF90CF80C86
:10004600031C0A287B08F3007A08F2007908F100FD
:060056007808F00008002C
:0C005C008312031395011712971208007D
:0C006800831203139B011D129D1208005F
:10007400831603130711831212150C30970408001A
:10008400831603138710831212150C309D04080085
:10009400831603131208013EF000F1010318F10A5C
:1000A40083122608F400F50103200630F2007008DC
:1000B400F4007108F500720803196528F50CF40CB6
:1000C400F513FF3E5E280430F1007408F000710857
:1000D40003197028F00D7010FF3E6A283030700547
:1000E400F3007408F0007508F100F10CF00CF11342
:1000F400F10CF00CF113700895000F30970573089C
:040104009704080054
:10010800831603131208013EF000F1010318F10AE7
:1001180083122608F400F50103200630F200700867
:10012800F4007108F500720803199F28F50CF40C07
:10013800F513FF3E98280430F1007408F0007108A8
:100148000319AA28F00D7010FF3EA428303070055E
:10015800F3007408F0007508F100F10CF00CF113CD
:10016800F10CF00CF11370089B000F309D0573081B
:040178009D040800DA
:10017C000F30831603139F0407309C04FF30860056
:10018C008312860112149214F930831692002E20D9
:10019C0012149214F9308316920034203230A200DB
:1001AC000030A3006430A0000030A1003A204220AF
:1001BC002208A6004A202008A6008420061FF52845
:1001CC006830FC00E430FD00FD0BEA28FC0BEA284B
:1001DC000000A20A0319A30A2208A6004A20861FBF
:1001EC0007296830FC00E430FD00FD0BFB28FC0BFC
:1001FC00FB2800000130A202031CA3032208A60066
:06020C004A20E428082945
:02400E004A2F37
:00000001FF
