:020000003628A0
:10000800FF00030E8301A3000A08A2008A010B1C4B
:100018002F288B13061E1628013086068610061117
:1000280086112D28861E1E28023086060610061107
:1000380086112D28061F26280430860606108610ED
:1000480086112D28861F2D28083086060610861052
:1000580006110B108B1722088A00230E8300FF0E4F
:040068007F0E0900FE
:10006C00F030831603138600831286010B108B1558
:08007C008B170B1340284128EB
:02400E004A2F37
:00000001FF
