:020000001628C0
:0E0006008312031322088A00210882000800DA
:1000140003208A110A128000840AA10A0319A20A81
:08002400F003031D0A28080087
:10002C0083120313A0018316860183128601033009
:10003C0083168700831207182728A00A0718272879
:10004C00242887182D28A00387182D282A288030CB
:10005C00633AF10080302006710201300318003041
:10006C00F10080302006F0008030003A7002013040
:10007C0003180030F0007108F00403194628A001A1
:08008C00200886002028492805
:02400E004A2F37
:00000001FF
